{
  "_format": "hh-sol-artifact-1",
  "contractName": "NFTMarket",
  "sourceName": "contracts/NFTMarket.sol",
  "abi": [
    {
      "inputs": [],
      "stateMutability": "nonpayable",
      "type": "constructor"
    },
    {
      "anonymous": false,
      "inputs": [
        {
          "indexed": true,
          "internalType": "uint256",
          "name": "itemId",
          "type": "uint256"
        },
        {
          "indexed": true,
          "internalType": "address",
          "name": "nftContract",
          "type": "address"
        },
        {
          "indexed": true,
          "internalType": "uint256",
          "name": "tokenId",
          "type": "uint256"
        },
        {
          "indexed": false,
          "internalType": "address",
          "name": "seller",
          "type": "address"
        },
        {
          "indexed": false,
          "internalType": "address",
          "name": "owner",
          "type": "address"
        },
        {
          "indexed": false,
          "internalType": "uint256",
          "name": "price",
          "type": "uint256"
        },
        {
          "indexed": false,
          "internalType": "bool",
          "name": "sold",
          "type": "bool"
        }
      ],
      "name": "MarketItemCreated",
      "type": "event"
    },
    {
      "inputs": [
        {
          "internalType": "address",
          "name": "nftContract",
          "type": "address"
        },
        {
          "internalType": "uint256",
          "name": "tokenId",
          "type": "uint256"
        },
        {
          "internalType": "uint256",
          "name": "price",
          "type": "uint256"
        }
      ],
      "name": "createMarketItem",
      "outputs": [],
      "stateMutability": "payable",
      "type": "function"
    },
    {
      "inputs": [
        {
          "internalType": "address",
          "name": "nftContract",
          "type": "address"
        },
        {
          "internalType": "uint256",
          "name": "itemId",
          "type": "uint256"
        }
      ],
      "name": "createMarketSale",
      "outputs": [],
      "stateMutability": "payable",
      "type": "function"
    },
    {
      "inputs": [],
      "name": "fetchItemsCreated",
      "outputs": [
        {
          "components": [
            {
              "internalType": "uint256",
              "name": "itemId",
              "type": "uint256"
            },
            {
              "internalType": "address",
              "name": "nftContract",
              "type": "address"
            },
            {
              "internalType": "uint256",
              "name": "tokenId",
              "type": "uint256"
            },
            {
              "internalType": "address payable",
              "name": "seller",
              "type": "address"
            },
            {
              "internalType": "address payable",
              "name": "owner",
              "type": "address"
            },
            {
              "internalType": "uint256",
              "name": "price",
              "type": "uint256"
            },
            {
              "internalType": "bool",
              "name": "sold",
              "type": "bool"
            }
          ],
          "internalType": "struct NFTMarket.MarketItem[]",
          "name": "",
          "type": "tuple[]"
        }
      ],
      "stateMutability": "view",
      "type": "function"
    },
    {
      "inputs": [],
      "name": "fetchMarketItems",
      "outputs": [
        {
          "components": [
            {
              "internalType": "uint256",
              "name": "itemId",
              "type": "uint256"
            },
            {
              "internalType": "address",
              "name": "nftContract",
              "type": "address"
            },
            {
              "internalType": "uint256",
              "name": "tokenId",
              "type": "uint256"
            },
            {
              "internalType": "address payable",
              "name": "seller",
              "type": "address"
            },
            {
              "internalType": "address payable",
              "name": "owner",
              "type": "address"
            },
            {
              "internalType": "uint256",
              "name": "price",
              "type": "uint256"
            },
            {
              "internalType": "bool",
              "name": "sold",
              "type": "bool"
            }
          ],
          "internalType": "struct NFTMarket.MarketItem[]",
          "name": "",
          "type": "tuple[]"
        }
      ],
      "stateMutability": "view",
      "type": "function"
    },
    {
      "inputs": [],
      "name": "fetchMyNFTs",
      "outputs": [
        {
          "components": [
            {
              "internalType": "uint256",
              "name": "itemId",
              "type": "uint256"
            },
            {
              "internalType": "address",
              "name": "nftContract",
              "type": "address"
            },
            {
              "internalType": "uint256",
              "name": "tokenId",
              "type": "uint256"
            },
            {
              "internalType": "address payable",
              "name": "seller",
              "type": "address"
            },
            {
              "internalType": "address payable",
              "name": "owner",
              "type": "address"
            },
            {
              "internalType": "uint256",
              "name": "price",
              "type": "uint256"
            },
            {
              "internalType": "bool",
              "name": "sold",
              "type": "bool"
            }
          ],
          "internalType": "struct NFTMarket.MarketItem[]",
          "name": "",
          "type": "tuple[]"
        }
      ],
      "stateMutability": "view",
      "type": "function"
    },
    {
      "inputs": [],
      "name": "getListingPrice",
      "outputs": [
        {
          "internalType": "uint256",
          "name": "",
          "type": "uint256"
        }
      ],
      "stateMutability": "view",
      "type": "function"
    },
    {
      "inputs": [
        {
          "internalType": "uint256",
          "name": "tokenId",
          "type": "uint256"
        }
      ],
      "name": "getMarketItemForId",
      "outputs": [
        {
          "components": [
            {
              "internalType": "uint256",
              "name": "itemId",
              "type": "uint256"
            },
            {
              "internalType": "address",
              "name": "nftContract",
              "type": "address"
            },
            {
              "internalType": "uint256",
              "name": "tokenId",
              "type": "uint256"
            },
            {
              "internalType": "address payable",
              "name": "seller",
              "type": "address"
            },
            {
              "internalType": "address payable",
              "name": "owner",
              "type": "address"
            },
            {
              "internalType": "uint256",
              "name": "price",
              "type": "uint256"
            },
            {
              "internalType": "bool",
              "name": "sold",
              "type": "bool"
            }
          ],
          "internalType": "struct NFTMarket.MarketItem",
          "name": "",
          "type": "tuple"
        }
      ],
      "stateMutability": "view",
      "type": "function"
    },
    {
      "inputs": [],
      "name": "getTotalNoItems",
      "outputs": [
        {
          "internalType": "uint256",
          "name": "",
          "type": "uint256"
        }
      ],
      "stateMutability": "view",
      "type": "function"
    },
    {
      "inputs": [
        {
          "internalType": "address",
          "name": "nftContract",
          "type": "address"
        },
        {
          "internalType": "uint256",
          "name": "itemId",
          "type": "uint256"
        },
        {
          "internalType": "uint256",
          "name": "price",
          "type": "uint256"
        }
      ],
      "name": "resellToken",
      "outputs": [],
      "stateMutability": "payable",
      "type": "function"
    },
    {
      "inputs": [
        {
          "internalType": "uint256",
          "name": "_price",
          "type": "uint256"
        }
      ],
      "name": "setListingPrice",
      "outputs": [
        {
          "internalType": "uint256",
          "name": "",
          "type": "uint256"
        }
      ],
      "stateMutability": "nonpayable",
      "type": "function"
    }
  ],
  "bytecode": "0x60806040526509184e72a00060045534801561001a57600080fd5b50600160008190555033600360006101000a81548173ffffffffffffffffffffffffffffffffffffffff021916908373ffffffffffffffffffffffffffffffffffffffff160217905550612076806100736000396000f3fe6080604052600436106100915760003560e01c80637c726b69116100595780637c726b6914610170578063b23e1ad9146101ad578063c23b139e146101c9578063effb56cc146101e5578063f064c32e1461021057610091565b80630f08efe01461009657806312e85585146100c1578063202e3740146100ec5780633ba544f51461011757806358eb2df514610154575b600080fd5b3480156100a257600080fd5b506100ab61023b565b6040516100b89190611c12565b60405180910390f35b3480156100cd57600080fd5b506100d661052c565b6040516100e39190611d0f565b60405180910390f35b3480156100f857600080fd5b50610101610536565b60405161010e9190611c12565b60405180910390f35b34801561012357600080fd5b5061013e600480360381019061013991906118a0565b6108e6565b60405161014b9190611cf4565b60405180910390f35b61016e60048036038101906101699190611851565b610a4e565b005b34801561017c57600080fd5b50610197600480360381019061019291906118a0565b610db2565b6040516101a49190611d0f565b60405180910390f35b6101c760048036038101906101c29190611851565b610dfa565b005b6101e360048036038101906101de9190611815565b611070565b005b3480156101f157600080fd5b506101fa611329565b6040516102079190611d0f565b60405180910390f35b34801561021c57600080fd5b5061022561133a565b6040516102329190611c12565b60405180910390f35b6060600061024960016116ea565b9050600061025760026116ea565b61026160016116ea565b61026b9190611dca565b90506000808267ffffffffffffffff8111156102b0577f4e487b7100000000000000000000000000000000000000000000000000000000600052604160045260246000fd5b6040519080825280602002602001820160405280156102e957816020015b6102d661176a565b8152602001906001900390816102ce5790505b50905060005b8481101561052157600015156005600060018461030c9190611d74565b815260200190815260200160002060060160009054906101000a900460ff161515141561050e576000600560006001846103469190611d74565b81526020019081526020016000206000015490506000600560008381526020019081526020016000209050806040518060e0016040529081600082015481526020016001820160009054906101000a900473ffffffffffffffffffffffffffffffffffffffff1673ffffffffffffffffffffffffffffffffffffffff1673ffffffffffffffffffffffffffffffffffffffff168152602001600282015481526020016003820160009054906101000a900473ffffffffffffffffffffffffffffffffffffffff1673ffffffffffffffffffffffffffffffffffffffff1673ffffffffffffffffffffffffffffffffffffffff1681526020016004820160009054906101000a900473ffffffffffffffffffffffffffffffffffffffff1673ffffffffffffffffffffffffffffffffffffffff1673ffffffffffffffffffffffffffffffffffffffff168152602001600582015481526020016006820160009054906101000a900460ff1615151515815250508486815181106104f1577f4e487b7100000000000000000000000000000000000000000000000000000000600052603260045260246000fd5b60200260200101819052506001856105099190611d74565b945050505b808061051990611e58565b9150506102ef565b508094505050505090565b6000600454905090565b6060600061054460016116ea565b905060008060005b838110156105ed573373ffffffffffffffffffffffffffffffffffffffff166005600060018461057c9190611d74565b815260200190815260200160002060040160009054906101000a900473ffffffffffffffffffffffffffffffffffffffff1673ffffffffffffffffffffffffffffffffffffffff1614156105da576001836105d79190611d74565b92505b80806105e590611e58565b91505061054c565b5060008267ffffffffffffffff811115610630577f4e487b7100000000000000000000000000000000000000000000000000000000600052604160045260246000fd5b60405190808252806020026020018201604052801561066957816020015b61065661176a565b81526020019060019003908161064e5790505b50905060005b848110156108db573373ffffffffffffffffffffffffffffffffffffffff166005600060018461069f9190611d74565b815260200190815260200160002060040160009054906101000a900473ffffffffffffffffffffffffffffffffffffffff1673ffffffffffffffffffffffffffffffffffffffff1614156108c8576000600560006001846107009190611d74565b81526020019081526020016000206000015490506000600560008381526020019081526020016000209050806040518060e0016040529081600082015481526020016001820160009054906101000a900473ffffffffffffffffffffffffffffffffffffffff1673ffffffffffffffffffffffffffffffffffffffff1673ffffffffffffffffffffffffffffffffffffffff168152602001600282015481526020016003820160009054906101000a900473ffffffffffffffffffffffffffffffffffffffff1673ffffffffffffffffffffffffffffffffffffffff1673ffffffffffffffffffffffffffffffffffffffff1681526020016004820160009054906101000a900473ffffffffffffffffffffffffffffffffffffffff1673ffffffffffffffffffffffffffffffffffffffff1673ffffffffffffffffffffffffffffffffffffffff168152602001600582015481526020016006820160009054906101000a900460ff1615151515815250508486815181106108ab577f4e487b7100000000000000000000000000000000000000000000000000000000600052603260045260246000fd5b60200260200101819052506001856108c39190611d74565b945050505b80806108d390611e58565b91505061066f565b508094505050505090565b6108ee61176a565b600560008381526020019081526020016000206040518060e0016040529081600082015481526020016001820160009054906101000a900473ffffffffffffffffffffffffffffffffffffffff1673ffffffffffffffffffffffffffffffffffffffff1673ffffffffffffffffffffffffffffffffffffffff168152602001600282015481526020016003820160009054906101000a900473ffffffffffffffffffffffffffffffffffffffff1673ffffffffffffffffffffffffffffffffffffffff1673ffffffffffffffffffffffffffffffffffffffff1681526020016004820160009054906101000a900473ffffffffffffffffffffffffffffffffffffffff1673ffffffffffffffffffffffffffffffffffffffff1673ffffffffffffffffffffffffffffffffffffffff168152602001600582015481526020016006820160009054906101000a900460ff1615151515815250509050919050565b60026000541415610a94576040517f08c379a0000000000000000000000000000000000000000000000000000000008152600401610a8b90611cd4565b60405180910390fd5b600260008190555060008111610adf576040517f08c379a0000000000000000000000000000000000000000000000000000000008152600401610ad690611c54565b60405180910390fd5b6004543414610b23576040517f08c379a0000000000000000000000000000000000000000000000000000000008152600401610b1a90611cb4565b60405180910390fd5b610b2d60016116f8565b6000610b3960016116ea565b90506040518060e001604052808281526020018573ffffffffffffffffffffffffffffffffffffffff1681526020018481526020013373ffffffffffffffffffffffffffffffffffffffff168152602001600073ffffffffffffffffffffffffffffffffffffffff16815260200183815260200160001515815250600560008381526020019081526020016000206000820151816000015560208201518160010160006101000a81548173ffffffffffffffffffffffffffffffffffffffff021916908373ffffffffffffffffffffffffffffffffffffffff1602179055506040820151816002015560608201518160030160006101000a81548173ffffffffffffffffffffffffffffffffffffffff021916908373ffffffffffffffffffffffffffffffffffffffff16021790555060808201518160040160006101000a81548173ffffffffffffffffffffffffffffffffffffffff021916908373ffffffffffffffffffffffffffffffffffffffff16021790555060a0820151816005015560c08201518160060160006101000a81548160ff0219169083151502179055509050508373ffffffffffffffffffffffffffffffffffffffff166323b872dd3330866040518463ffffffff1660e01b8152600401610d1a93929190611b96565b600060405180830381600087803b158015610d3457600080fd5b505af1158015610d48573d6000803e3d6000fd5b50505050828473ffffffffffffffffffffffffffffffffffffffff16827f045dfa01dcba2b36aba1d3dc4a874f4b0c5d2fbeb8d2c4b34a7d88c8d8f929d1336000876000604051610d9c9493929190611bcd565b60405180910390a4506001600081905550505050565b60003073ffffffffffffffffffffffffffffffffffffffff163373ffffffffffffffffffffffffffffffffffffffff161415610df057816004819055505b6004549050919050565b3373ffffffffffffffffffffffffffffffffffffffff166005600084815260200190815260200160002060040160009054906101000a900473ffffffffffffffffffffffffffffffffffffffff1673ffffffffffffffffffffffffffffffffffffffff1614610e9e576040517f08c379a0000000000000000000000000000000000000000000000000000000008152600401610e9590611c74565b60405180910390fd5b6004543414610ee2576040517f08c379a0000000000000000000000000000000000000000000000000000000008152600401610ed990611cb4565b60405180910390fd5b60006005600084815260200190815260200160002060060160006101000a81548160ff021916908315150217905550806005600084815260200190815260200160002060050181905550336005600084815260200190815260200160002060030160006101000a81548173ffffffffffffffffffffffffffffffffffffffff021916908373ffffffffffffffffffffffffffffffffffffffff160217905550306005600084815260200190815260200160002060040160006101000a81548173ffffffffffffffffffffffffffffffffffffffff021916908373ffffffffffffffffffffffffffffffffffffffff160217905550610fe0600261170e565b6000600560008481526020019081526020016000206002015490508373ffffffffffffffffffffffffffffffffffffffff166323b872dd3330846040518463ffffffff1660e01b815260040161103893929190611b96565b600060405180830381600087803b15801561105257600080fd5b505af1158015611066573d6000803e3d6000fd5b5050505050505050565b600260005414156110b6576040517f08c379a00000000000000000000000000000000000000000000000000000000081526004016110ad90611cd4565b60405180910390fd5b6002600081905550600060056000838152602001908152602001600020600501549050600060056000848152602001908152602001600020600201549050813414611136576040517f08c379a000000000000000000000000000000000000000000000000000000000815260040161112d90611c94565b60405180910390fd5b6005600084815260200190815260200160002060030160009054906101000a900473ffffffffffffffffffffffffffffffffffffffff1673ffffffffffffffffffffffffffffffffffffffff166108fc349081150290604051600060405180830381858888f193505050501580156111b2573d6000803e3d6000fd5b508373ffffffffffffffffffffffffffffffffffffffff166323b872dd3033846040518463ffffffff1660e01b81526004016111f093929190611b96565b600060405180830381600087803b15801561120a57600080fd5b505af115801561121e573d6000803e3d6000fd5b50505050336005600085815260200190815260200160002060040160006101000a81548173ffffffffffffffffffffffffffffffffffffffff021916908373ffffffffffffffffffffffffffffffffffffffff16021790555060016005600085815260200190815260200160002060060160006101000a81548160ff0219169083151502179055506112b060026116f8565b600360009054906101000a900473ffffffffffffffffffffffffffffffffffffffff1673ffffffffffffffffffffffffffffffffffffffff166108fc6004549081150290604051600060405180830381858888f1935050505015801561131a573d6000803e3d6000fd5b50505060016000819055505050565b600061133560016116ea565b905090565b6060600061134860016116ea565b905060008060005b838110156113f1573373ffffffffffffffffffffffffffffffffffffffff16600560006001846113809190611d74565b815260200190815260200160002060030160009054906101000a900473ffffffffffffffffffffffffffffffffffffffff1673ffffffffffffffffffffffffffffffffffffffff1614156113de576001836113db9190611d74565b92505b80806113e990611e58565b915050611350565b5060008267ffffffffffffffff811115611434577f4e487b7100000000000000000000000000000000000000000000000000000000600052604160045260246000fd5b60405190808252806020026020018201604052801561146d57816020015b61145a61176a565b8152602001906001900390816114525790505b50905060005b848110156116df573373ffffffffffffffffffffffffffffffffffffffff16600560006001846114a39190611d74565b815260200190815260200160002060030160009054906101000a900473ffffffffffffffffffffffffffffffffffffffff1673ffffffffffffffffffffffffffffffffffffffff1614156116cc576000600560006001846115049190611d74565b81526020019081526020016000206000015490506000600560008381526020019081526020016000209050806040518060e0016040529081600082015481526020016001820160009054906101000a900473ffffffffffffffffffffffffffffffffffffffff1673ffffffffffffffffffffffffffffffffffffffff1673ffffffffffffffffffffffffffffffffffffffff168152602001600282015481526020016003820160009054906101000a900473ffffffffffffffffffffffffffffffffffffffff1673ffffffffffffffffffffffffffffffffffffffff1673ffffffffffffffffffffffffffffffffffffffff1681526020016004820160009054906101000a900473ffffffffffffffffffffffffffffffffffffffff1673ffffffffffffffffffffffffffffffffffffffff1673ffffffffffffffffffffffffffffffffffffffff168152602001600582015481526020016006820160009054906101000a900460ff1615151515815250508486815181106116af577f4e487b7100000000000000000000000000000000000000000000000000000000600052603260045260246000fd5b60200260200101819052506001856116c79190611d74565b945050505b80806116d790611e58565b915050611473565b508094505050505090565b600081600001549050919050565b6001816000016000828254019250508190555050565b6000816000015490506000811161175a576040517f08c379a000000000000000000000000000000000000000000000000000000000815260040161175190611c34565b60405180910390fd5b6001810382600001819055505050565b6040518060e0016040528060008152602001600073ffffffffffffffffffffffffffffffffffffffff16815260200160008152602001600073ffffffffffffffffffffffffffffffffffffffff168152602001600073ffffffffffffffffffffffffffffffffffffffff168152602001600081526020016000151581525090565b6000813590506117fa81612012565b92915050565b60008135905061180f81612029565b92915050565b6000806040838503121561182857600080fd5b6000611836858286016117eb565b925050602061184785828601611800565b9150509250929050565b60008060006060848603121561186657600080fd5b6000611874868287016117eb565b935050602061188586828701611800565b925050604061189686828701611800565b9150509250925092565b6000602082840312156118b257600080fd5b60006118c084828501611800565b91505092915050565b60006118d58383611a5c565b60e08301905092915050565b6118ea81611e10565b82525050565b6118f981611dfe565b82525050565b61190881611dfe565b82525050565b600061191982611d3a565b6119238185611d52565b935061192e83611d2a565b8060005b8381101561195f57815161194688826118c9565b975061195183611d45565b925050600181019050611932565b5085935050505092915050565b61197581611e22565b82525050565b61198481611e22565b82525050565b6000611997601b83611d63565b91506119a282611ed0565b602082019050919050565b60006119ba601883611d63565b91506119c582611ef9565b602082019050919050565b60006119dd602a83611d63565b91506119e882611f22565b604082019050919050565b6000611a00601883611d63565b9150611a0b82611f71565b602082019050919050565b6000611a23602483611d63565b9150611a2e82611f9a565b604082019050919050565b6000611a46601f83611d63565b9150611a5182611fe9565b602082019050919050565b60e082016000820151611a726000850182611b78565b506020820151611a8560208501826118f0565b506040820151611a986040850182611b78565b506060820151611aab60608501826118e1565b506080820151611abe60808501826118e1565b5060a0820151611ad160a0850182611b78565b5060c0820151611ae460c085018261196c565b50505050565b60e082016000820151611b006000850182611b78565b506020820151611b1360208501826118f0565b506040820151611b266040850182611b78565b506060820151611b3960608501826118e1565b506080820151611b4c60808501826118e1565b5060a0820151611b5f60a0850182611b78565b5060c0820151611b7260c085018261196c565b50505050565b611b8181611e4e565b82525050565b611b9081611e4e565b82525050565b6000606082019050611bab60008301866118ff565b611bb860208301856118ff565b611bc56040830184611b87565b949350505050565b6000608082019050611be260008301876118ff565b611bef60208301866118ff565b611bfc6040830185611b87565b611c09606083018461197b565b95945050505050565b60006020820190508181036000830152611c2c818461190e565b905092915050565b60006020820190508181036000830152611c4d8161198a565b9050919050565b60006020820190508181036000830152611c6d816119ad565b9050919050565b60006020820190508181036000830152611c8d816119d0565b9050919050565b60006020820190508181036000830152611cad816119f3565b9050919050565b60006020820190508181036000830152611ccd81611a16565b9050919050565b60006020820190508181036000830152611ced81611a39565b9050919050565b600060e082019050611d096000830184611aea565b92915050565b6000602082019050611d246000830184611b87565b92915050565b6000819050602082019050919050565b600081519050919050565b6000602082019050919050565b600082825260208201905092915050565b600082825260208201905092915050565b6000611d7f82611e4e565b9150611d8a83611e4e565b9250827fffffffffffffffffffffffffffffffffffffffffffffffffffffffffffffffff03821115611dbf57611dbe611ea1565b5b828201905092915050565b6000611dd582611e4e565b9150611de083611e4e565b925082821015611df357611df2611ea1565b5b828203905092915050565b6000611e0982611e2e565b9050919050565b6000611e1b82611e2e565b9050919050565b60008115159050919050565b600073ffffffffffffffffffffffffffffffffffffffff82169050919050565b6000819050919050565b6000611e6382611e4e565b91507fffffffffffffffffffffffffffffffffffffffffffffffffffffffffffffffff821415611e9657611e95611ea1565b5b600182019050919050565b7f4e487b7100000000000000000000000000000000000000000000000000000000600052601160045260246000fd5b7f436f756e7465723a2064656372656d656e74206f766572666c6f770000000000600082015250565b7f5072696365206d7573742062652061626f7665207a65726f0000000000000000600082015250565b7f4f6e6c79206974656d206f776e65722063616e20706572666f726d207468697360008201527f206f7065726174696f6e00000000000000000000000000000000000000000000602082015250565b7f41736b696e67207072696365206e6f74206d6174636865640000000000000000600082015250565b7f5072696365206d75737420626520657175616c20746f206c697374696e67207060008201527f7269636500000000000000000000000000000000000000000000000000000000602082015250565b7f5265656e7472616e637947756172643a207265656e7472616e742063616c6c00600082015250565b61201b81611dfe565b811461202657600080fd5b50565b61203281611e4e565b811461203d57600080fd5b5056fea264697066735822122053526e68ddfdca279b4fe3572c0fbbb8e5df5bf2830b6d36f1c4c17467612a3464736f6c63430008040033",
  "linkReferences": {},
  "deployedLinkReferences": {}
}